:020000040800F2
:100000000028002049170008D9160008DF1600084C
:10001000E5160008EB160008F116000800000000C5
:10002000000000000000000000000000F7160008BB
:1000300003170008000000000F1700081B17000836
:1000400091170008911700089117000891170008F0
:1000500091170008911700089117000891170008E0
:1000600091170008911700089117000891170008D0
:1000700091170008911700089117000891170008C0
:1000800091170008911700089117000891170008B0
:1000900091170008911700089117000891170008A0
:1000A0009117000891170008911700089117000890
:1000B0002917000891170008000000009117000898
:1000C00091170008000000000000000091170008D0
:1000D00000000000911700089117000800000000C0
:1000E0009117000891170008911700080000000000
:1000F0000000000000000000000000000000000000
:0C01000000000000000000005FF808F1A3
:10010C0010B5054C237833B9044B13B10448AFF345
:10011C0000800123237010BD180000200000000097
:10012C00BC2D000808B5034B1BB103490348AFF3C2
:10013C00008008BD000000001C000020BC2D000841
:10014C0080B500AF944B1B78012B40F02281934B70
:10015C001B78032B62D801A252F823F07901000816
:10016C0087010008BD010008F30100088B4B012238
:10017C001A70642001F0A0F957E0012000F03EF95C
:10018C00874B1B68012B4BD1864B1B68013B854A67
:10019C001360844B1B68002B06D1834B1B68814A70
:1001AC0013607E4B02221A70642001F085F937E04F
:1001BC00022000F023F97A4B1B68012B32D1794BCA
:1001CC001B68013B774A1360764B1B68002B06D1EA
:1001DC00764B1B68734A1360704B03221A706420B1
:1001EC0001F06AF91EE0032000F008F96C4B1B6863
:1001FC00012B19D16B4B1B68013B6A4A1360694B8D
:10020C001B68002B06D16A4B1B68664A1360634B54
:10021C0001221A70642001F04FF905E000BF04E0E0
:10022C0000BF02E000BF00E000BF624B1B78032B55
:10023C0062D801A252F823F05502000863020008AC
:10024C0099020008CF0200085A4B02221A7064204F
:10025C0001F046F957E0012000F02CF9564B1B68D1
:10026C00012B4BD1554B1B68013B544A1360534B2C
:10027C001B68002B06D14C4B1B68504A13604D4B2E
:10028C0002221A70642001F02BF937E0022000F0F2
:10029C0011F9494B1B68012B32D1484B1B68013BB0
:1002AC00464A1360454B1B68002B06D13F4B1B681D
:1002BC00424A13603F4B03221A70642001F010F97C
:1002CC001EE0032000F0F6F83B4B1B68012B19D104
:1002DC003A4B1B68013B394A1360384B1B68002BA7
:1002EC0006D1334B1B68354A1360324B01221A700E
:1002FC00642001F0F5F805E000BF04E000BF02E067
:10030C0000BF00E000BF2E4B1B78022B20D0022B2D
:10031C0031DC002B02D0012B07D02CE0284B012222
:10032C001A70012001F0F0F82AE0264B1B68012B13
:10033C0023D11C4B1B68214A12681146184600F049
:10034C00F3FC1F4B02221A70322001F0DDF814E08E
:10035C001C4B1B68012B12D1124B1B68174A1268DD
:10036C001146184600F004FD154B01221A7032207C
:10037C0001F0CAF803E000BF02E000BF00E000BFDC
:10038C00002000F021F80346012B02D1024B02227F
:10039C001A7000BF80BD00BF8B00002091000020B0
:1003AC00400000209C0000200400002008000020D9
:1003BC00000000208F00002044000020940000204A
:1003CC00990000204800002080B483B000AF786012
:1003DC00094A7B6852F82330012B06D1064A7B6808
:1003EC00002142F82310012300E0002318460C37AB
:1003FC00BD4680BC704700BF3400002080B582B081
:10040C0000AF0346FB71FB79032B4BD801A252F8CA
:10041C0023F000BF310400085104000891040008C7
:10042C007104000801221021214801F097FC0122DF
:10043C0008211F4801F092FC012204211C4801F004
:10044C008DFC30E001221021194801F087FC0122BB
:10045C000821174801F082FC00220421144801F005
:10046C007DFC20E001221021114801F077FC0022D4
:10047C0008210F4801F072FC012204210C4801F004
:10048C006DFC10E000221021094801F067FC0122EC
:10049C000821074801F062FC01220421044801F004
:1004AC005DFC00E000BF00BF0837BD4680BD00BF4B
:1004BC000008014080B582B000AF0346FB71FB79A8
:1004CC00032B4BD801A252F823F000BFE90400081B
:1004DC0009050008490500082905000801228021AA
:1004EC00214801F03BFC012240211F4801F036FC61
:1004FC00012220211C4801F031FC30E00122802136
:10050C00194801F02BFC01224021174801F026FC70
:10051C0000222021144801F021FC20E0012280213E
:10052C00114801F01BFC002240210F4801F016FC81
:10053C00012220210C4801F011FC10E00022802146
:10054C00094801F00BFC01224021074801F006FC90
:10055C0001222021044801F001FC00E000BF00BF93
:10056C000837BD4680BD00BF0008014080B582B091
:10057C0000AF0346FB71FB79032B0ED0032B1EDC63
:10058C00012B13D0022B1AD110210F4801F0FEFBC6
:10059C0080210D4801F0FAFB12E008210A4801F015
:1005AC00F5FB4021084801F0F1FB09E00421064865
:1005BC0001F0ECFB2021044801F0E8FB00E000BF57
:1005CC0000BF0837BD4680BD0008014080B582B031
:1005DC0000AF78607B68092B00F2808101A252F891
:1005EC0023F000BF1906000861060008A9060008E0
:1005FC00F10600083907000881070008C907000840
:10060C001108000859080008A1080008002201215F
:10061C00B54801F0A3FB00220221B34801F09EFB78
:10062C0000220421B04801F099FB00220821AE48B9
:10063C0001F094FB00221021AB4801F08FFB00224B
:10064C002021A94801F08AFB01224021A64801F093
:10065C0085FB44E101220121A34801F07FFB00222C
:10066C000221A14801F07AFB002204219E4801F0EE
:10067C0075FB012208219C4801F070FB012210211E
:10068C00994801F06BFB01222021974801F066FB91
:10069C0001224021944801F061FB20E1002201215C
:1006AC00914801F05BFB002202218F4801F056FBC0
:1006BC00012204218C4801F051FB002208218A48B8
:1006CC0001F04CFB00221021874801F047FB01226E
:1006DC002021854801F042FB00224021824801F094
:1006EC003DFBFCE0002201217F4801F037FB00229A
:1006FC0002217D4801F032FB002204217A4801F0EE
:10070C002DFB00220821784801F028FB0122102142
:10071C00754801F023FB01222021734801F01EFBD8
:10072C0000224021704801F019FBD8E00122012180
:10073C006D4801F013FB002202216B4801F00EFB07
:10074C0000220421684801F009FB012208216648B7
:10075C0001F004FB01221021634801F0FFFA002292
:10076C002021614801F0FAFA002240215E4801F094
:10077C00F5FAB4E0002201215B4801F0EFFA012206
:10078C000221594801F0EAFA00220421564801F0EE
:10079C00E5FA00220821544801F0E0FA0122102168
:1007AC00514801F0DBFA002220214F4801F0D6FA23
:1007BC00002240214C4801F0D1FA90E000220121A6
:1007CC00494801F0CBFA01220221474801F0C6FA50
:1007DC0000220421444801F0C1FA002208214248B9
:1007EC0001F0BCFA002210213F4801F0B7FA0022B8
:1007FC0020213D4801F0B2FA002240213A4801F094
:10080C00ADFA6CE000220121374801F0A7FA002272
:10081C000221354801F0A2FA00220421324801F0ED
:10082C009DFA01220821304801F098FA012210218A
:10083C002D4801F093FA012220212B4801F08EFA69
:10084C0001224021284801F089FA48E000220121C8
:10085C00254801F083FA00220221234801F07EFA98
:10086C0000220421204801F079FA002208211E48B8
:10087C0001F074FA002210211B4801F06FFA0022DB
:10088C002021194801F06AFA00224021164801F093
:10089C0065FA24E000220121134801F05FFA0022DE
:1008AC000221114801F05AFA002204210E4801F0ED
:1008BC0055FA002208210C4801F050FA01221021AF
:1008CC00094801F04BFA00222021074801F046FAB2
:1008DC0000224021044801F041FA00E000BF00BFB3
:1008EC000837BD4680BD00BF000C014080B582B00A
:1008FC0000AF78607B68092B00F2C88101A252F826
:10090C0023F000BF390900088F090008E509000829
:10091C003B0A0008910A0008E70A00083D0B000892
:10092C00930B0008E90B00083F0C000800224FF461
:10093C008071D54801F012FA00224FF40071D248B0
:10094C0001F00CFA00224FF48061CF4801F006FA56
:10095C0000224FF40061CC4801F000FA00224FF461
:10096C008051C94801F0FAF900224FF40051C648F1
:10097C0001F0F4F901224FF48041C34801F0EEF983
:10098C0085E101224FF48071BF4801F0E7F90022A4
:10099C004FF40071BC4801F0E1F900224FF4806182
:1009AC00B94801F0DBF901224FF40061B64801F0BF
:1009BC00D5F901224FF48051B34801F0CFF901224F
:1009CC004FF40051B04801F0C9F901224FF48041B5
:1009DC00AD4801F0C3F95AE100224FF48071AA48E6
:1009EC0001F0BCF900224FF40071A74801F0B6F9F0
:1009FC0001224FF48061A44801F0B0F900224FF4B9
:100A0C000061A14801F0AAF900224FF480519E48E0
:100A1C0001F0A4F901224FF400519B4801F09EF91A
:100A2C0000224FF48041984801F098F92FE1002200
:100A3C004FF48071944801F091F900224FF4007149
:100A4C00914801F08BF900224FF480618E4801F03F
:100A5C0085F900224FF400618B4801F07FF90122E7
:100A6C004FF48051884801F079F901224FF400517C
:100A7C00854801F073F900224FF48041824801F05F
:100A8C006DF904E101224FF480717F4801F066F9A1
:100A9C0000224FF400717C4801F060F900224FF401
:100AAC008061794801F05AF901224FF400617648CF
:100ABC0001F054F901224FF48051734801F04EF9C2
:100ACC0000224FF40051704801F048F900224FF415
:100ADC0080416D4801F042F9D9E000224FF4807159
:100AEC00694801F03BF901224FF40071664801F0AE
:100AFC0035F900224FF48061634801F02FF9002290
:100B0C004FF40061604801F029F901224FF4805143
:100B1C005D4801F023F900224FF400515A4801F0CE
:100B2C001DF900224FF48041574801F017F9AEE04F
:100B3C0000224FF48071544801F010F901224FF457
:100B4C000071514801F00AF900224FF480614E48BF
:100B5C0001F004F900224FF400614B4801F0FEF85B
:100B6C0000224FF48051484801F0F8F800224FF46D
:100B7C000051454801F0F2F800224FF48041424800
:100B8C0001F0ECF883E000224FF480713E4801F054
:100B9C00E5F800224FF400713B4801F0DFF8002229
:100BAC004FF48061384801F0D9F801224FF400610C
:100BBC00354801F0D3F801224FF48051324801F04E
:100BCC00CDF801224FF400512F4801F0C7F8012253
:100BDC004FF480412C4801F0C1F858E000224FF44A
:100BEC008071294801F0BAF800224FF400712648B0
:100BFC0001F0B4F800224FF48061234801F0AEF804
:100C0C0000224FF40061204801F0A8F800224FF4B4
:100C1C0080511D4801F0A2F800224FF400511A48EF
:100C2C0001F09CF800224FF48041174801F096F82F
:100C3C002DE000224FF48071134801F08FF8002250
:100C4C004FF40071104801F089F800224FF48061D4
:100C5C000D4801F083F800224FF400610A4801F0BE
:100C6C007DF801224FF48051074801F077F80022FB
:100C7C004FF40051044801F071F800224FF4804108
:100C8C00014801F06BF802E0000C014000BF00BF0E
:100C9C000837BD4680BD00BF80B500AF00224FF4C1
:100CAC008051054801F05AF801224FF400510248D6
:100CBC0001F054F800BF80BD0008014080B500AFC2
:100CCC0001224FF48051054801F048F800224FF4FE
:100CDC000051024801F042F800BF80BD00080140FD
:100CEC0080B500AF00224FF48041054801F036F882
:100CFC0001224FF40041024801F030F800BF80BDE2
:100D0C000008014080B500AF01224FF48041054836
:100D1C0001F024F800224FF40041024801F01EF8C3
:100D2C0000BF80BD0008014080B582B000AF786084
:100D3C003960FFF7B1FF7B680C4A82FB03129210FB
:100D4C00DB17D31A1846FFF741FCFFF7C9FF3B68C6
:100D5C00064A82FB03129210DB17D31A1846FFF7D0
:100D6C00C5FD00BF0837BD4680BD00BF676666661F
:100D7C0080B582B000AF78603960FFF79FFF7A686A
:100D8C00114B83FB02139910D317C91A0B469B0006
:100D9C000B445B00D11A0846FFF718FCFFF7B2FFB3
:100DAC003A68094B83FB02139910D317C91A0B46E7
:100DBC009B000B445B00D11A0846FFF797FD00BF60
:100DCC000837BD4680BD00BF6766666680B400AF5D
:100DDC00194B01221A70194B00221A70184B002261
:100DEC001A70184B00221A70174B00221A70174BEE
:100DFC0000221A70164B00221A70164B00221A7021
:100E0C00154B00221A70154B00221A70144B00223D
:100E1C001A70144B00221A70134B00221A70134BC9
:100E2C001B68134A1360134B1B68134A136000BFF3
:100E3C00BD4680BC704700BF8B0000209000002096
:100E4C008C000020980000208D00002089000020DC
:100E5C00920000208A0000208E00002088000020D4
:100E6C00910000208F00002099000020000000203D
:100E7C009C000020040000209400002080B500AFEE
:100E8C0000F082FC00F014F800F09AF800F04CF836
:100E9C00064801F0C1FBFFF799FF0020FFF7AEFAFF
:100EAC00FFF74EF900F0CAFAFAE700BFA0000020E5
:100EBC0080B590B000AF07F1180328220021184626
:100ECC0001F06EFF3B1D00221A605A609A60DA60D6
:100EDC001A610223BB610123BB621023FB62002356
:100EEC007B6307F11803184600F06AFF0346002BDA
:100EFC0001D000F0C9F80F237B600023BB600023F6
:100F0C00FB6000233B6100237B613B1D00211846E5
:100F1C0001F0D6F90346002B01D000F0B5F800BF64
:100F2C004037BD4680BD000080B586B000AF07F1EC
:100F3C00080300221A605A609A60DA603B4600226D
:100F4C001A605A601D4B4FF080421A601B4B41F6E1
:100F5C003F725A60194B00229A60184B0922DA60D2
:100F6C00164B00221A61154B00229A61134801F0AE
:100F7C0003FB0346002B01D000F086F84FF480539E
:100F8C00BB6007F1080319460C4801F099FC0346B5
:100F9C00002B01D000F078F800233B6000237B602D
:100FAC003B461946054801F06DFE0346002B01D067
:100FBC0000F06AF800BF1837BD4680BDA0000020C5
:100FCC0080B586B000AF07F1080300221A605A60A2
:100FDC009A60DA60294B9B69284A43F004039361B9
:100FEC00264B9B6903F004037B607B68234B9B6956
:100FFC00224A43F008039361204B9B6903F00803DA
:10100C003B603B6800224FF2FC011D4800F0A6FE3D
:10101C00002247F67F711B4800F0A0FE4FF2FC0344
:10102C00BB600123FB6000233B6102237B6107F162
:10103C0008031946124800F017FD47F67F73BB6092
:10104C000123FB6000233B6102237B6107F1080352
:10105C0019460C4800F008FD4FF4E063BB60002318
:10106C00FB6001233B6107F108031946044800F0BB
:10107C00FBFC00BF1837BD4680BD00BF001002400E
:10108C0000080140000C014080B400AF72B600BFF4
:10109C00FEE7000080B500AF454B1B78002B02D05B
:1010AC00012B07D011E0424B01221A70192000F0DD
:1010BC003FFA0AE03F4B1B68012B05D10120FFF7DB
:1010CC0055FA192000F034FA00BF3B4B1B78002B6B
:1010DC0002D0012B0FD02FE00120FFF775F903464A
:1010EC00012B26D1344B01221A70344B1B6801336F
:1010FC00324A13601DE00120FFF766F90346012B0D
:10110C000BD12E4B1B6801332C4A13602B4B1B68E5
:10111C00622B02DD294B01221A600220FFF754F9E1
:10112C000346012B07D1264B01221A70FFF74EFE06
:10113C0001E000BF00E000BF224B1B78022B1ED049
:10114C00022B2DDC002B02D0012B07D028E01D4BED
:10115C0001221A70192000F0FFF926E01A4B1B68C7
:10116C00012B1FD1154B1B6819460120FFF7DCFD25
:10117C00144B02221A70192000F0EEF912E0124BF7
:10118C001B68012B10D10D4B1B6819460120FFF772
:10119C00EFFD192000F0E0F90A4B01221A7003E070
:1011AC0000BF02E000BF00E000BF00BF80BD00BF79
:1011BC00900000204C00002098000020000000202F
:1011CC008B0000208C0000205000002080B500AF68
:1011DC00454B1B78002B02D0012B07D011E0424B62
:1011EC0001221A70192000F0CBF90AE03F4B1B6862
:1011FC00012B05D10320FFF7B9F9192000F0C0F934
:10120C0000BF3B4B1B78002B02D0012B0FD02FE0E3
:10121C000120FFF7D9F80346012B26D1344B0122CC
:10122C001A70344B1B680133324A13601DE00120E5
:10123C00FFF7CAF80346012B0BD12E4B1B68013369
:10124C002C4A13602B4B1B68622B02DD294B0122AD
:10125C001A600220FFF7B8F80346012B07D1264B82
:10126C0001221A70FFF7B2FD01E000BF00E000BFE1
:10127C00224B1B78022B1ED0022B2DDC002B02D014
:10128C00012B07D028E01D4B01221A70192000F009
:10129C008BF926E01A4B1B68012B1FD1154B1B68D1
:1012AC0019460120FFF740FD144B02221A70192039
:1012BC0000F07AF912E0124B1B68012B10D10D4B88
:1012CC001B6819460120FFF753FD192000F06CF93B
:1012DC000A4B01221A7003E000BF02E000BF00E0DD
:1012EC0000BF00BF80BD00BF8D0000205400002057
:1012FC0092000020080000208B00002089000020B4
:10130C005800002080B500AF454B1B78002B02D055
:10131C00012B07D011E0424B01221A70192000F06A
:10132C0057F90AE03F4B1B68012B05D10220FFF750
:10133C001DF9192000F04CF900BF3B4B1B78002B1A
:10134C0002D0012B0FD02FE00120FFF73DF8034610
:10135C00012B26D1344B01221A70344B1B680133FC
:10136C00324A13601DE00120FFF72EF80346012BD3
:10137C000BD12E4B1B6801332C4A13602B4B1B6873
:10138C00622B02DD294B01221A600220FFF71CF8A8
:10139C000346012B07D1264B01221A70FFF716FDCD
:1013AC0001E000BF00E000BF224B1B78022B1ED0D7
:1013BC00022B2DDC002B02D0012B07D028E01D4B7B
:1013CC0001221A70192000F017F926E01A4B1B683D
:1013DC00012B1FD1154B1B6819460120FFF7A4FCEC
:1013EC00144B02221A70192000F006F912E0124B6D
:1013FC001B68012B10D10D4B1B6819460120FFF700
:10140C00B7FC192000F0F8F80A4B01221A7003E01F
:10141C0000BF02E000BF00E000BF00BF80BD00BF06
:10142C008A0000205C0000208800002004000020BE
:10143C008B0000208E0000206000002080B500AFE3
:10144C001C4B1B78042B1ED0042B2ADC022B02D045
:10145C00032B0CD025E0FFF71DFE0020FEF7B4FF98
:10146C000346012B1FD1134B03221A701BE0FFF70D
:10147C00ADFE0020FEF7A8FF0346012B15D10D4B46
:10148C0004221A7011E0FFF73DFF0020FEF79CFFCD
:10149C000346012B0BD1074B01221A70FFF796FC68
:1014AC0005E000BF04E000BF02E000BF00E000BFA9
:1014BC0000BF80BD8B00002080B483B000AF78608B
:1014CC00054A7B681360054B00221A6000BF0C377D
:1014DC00BD4680BC704700BF640000204000002067
:1014EC0080B483B000AF7860054A7B681360054B0D
:1014FC0000221A6000BF0C37BD4680BC704700BF8D
:10150C00680000204400002080B483B000AF7860F5
:10151C00054A7B681360054B00221A6000BF0C372C
:10152C00BD4680BC704700BF6C0000204800002006
:10153C0080B483B000AF7860054A7B681360054BBC
:10154C0000221A6000BF0C37BD4680BC704700BF3C
:10155C00700000204C00002080B483B000AF786095
:10156C00054A7B681360054B00221A6000BF0C37DC
:10157C00BD4680BC704700BF7400002050000020A6
:10158C0080B483B000AF7860054A7B681360054B6C
:10159C0000221A6000BF0C37BD4680BC704700BFEC
:1015AC00780000205400002080B483B000AF786035
:1015BC00054A7B681360054B00221A6000BF0C378C
:1015CC00BD4680BC704700BF7C0000205800002046
:1015DC0080B483B000AF7860054A7B681360054B1C
:1015EC0000221A6000BF0C37BD4680BC704700BF9C
:1015FC00800000205C00002080B483B000AF7860D5
:10160C00054A7B681360054B00221A6000BF0C373B
:10161C00BD4680BC704700BF8400002060000020E5
:10162C0080B485B000AF154B9B69144A43F001039D
:10163C009361124B9B6903F00103BB60BB680F4BBA
:10164C00DB690E4A43F08053D3610C4BDB6903F02A
:10165C0080537B607B680A4B5B68FB60FB6823F004
:10166C00E063FB60FB6843F08063FB60044AFB684B
:10167C00536000BF1437BD4680BC70470010024059
:10168C000000014080B584B000AF78607B681B68B7
:10169C00B3F1804F13D10C4BDB690B4A43F00103C0
:1016AC00D361094BDB6903F00103FB60FB6800228B
:1016BC0000211C2000F0A1F91C2000F0BAF900BF99
:1016CC001037BD4680BD00BF0010024080B400AF93
:1016DC00FEE780B400AFFEE780B400AFFEE780B455
:1016EC0000AFFEE780B400AFFEE780B400AF00BFF0
:1016FC00BD4680BC704780B400AF00BFBD4680BC07
:10170C00704780B400AF00BFBD4680BC704780B549
:10171C0000AF00F07FF800BF80BD000080B500AFC7
:10172C00024800F0C5FF00BF80BD00BFA000002034
:10173C0080B400AF00BFBD4680BC7047FFF7F8FF18
:10174C000B480C490C4A002302E0D458C450043313
:10175C00C4188C42F9D3094A094C002301E01360E8
:10176C000432A242FBD301F0F7FAFFF787FB704774
:10177C000000002018000020002E00081800002097
:10178C00EC000020FEE7000080B500AF084B1B68A2
:10179C00074A43F010031360032000F023F90F20D5
:1017AC0000F008F8FFF73CFF0023184680BD00BF8F
:1017BC000020024080B582B000AF7860124B1A68EE
:1017CC00124B1B7819464FF47A73B3FBF1F3B2FB4F
:1017DC00F3F3184600F03BF90346002B01D001232C
:1017EC000EE07B680F2B0AD8002279684FF0FF308F
:1017FC0000F003F9064A7B681360002300E0012324
:10180C0018460837BD4680BD0C000020140000208F
:10181C001000002080B400AF054B1B781A46054B16
:10182C001B681344034A136000BFBD4680BC70475D
:10183C0014000020E800002080B400AF024B1B68AD
:10184C001846BD4680BC7047E800002080B485B0C7
:10185C0000AF78607B6803F00703FB600C4BDB6820
:10186C00BB60BA684FF6FF031340BB60FB681A02FB
:10187C00BB68134343F0BF6343F40033BB60044ABB
:10188C00BB68D36000BF1437BD4680BC704700BF37
:10189C0000ED00E080B400AF044BDB681B0A03F0E2
:1018AC0007031846BD4680BC704700BF00ED00E042
:1018BC0080B483B000AF0346FB7197F90730002B5F
:1018CC000BDBFB7903F01F02064997F907305B0924
:1018DC00012000FA02F241F8232000BF0C37BD466C
:1018EC0080BC704700E100E080B483B000AF0346D9
:1018FC003960FB7197F90730002B0ADB3B68DAB2D1
:10190C000C4997F907301201D2B20B4483F800232B
:10191C000AE03B68DAB20849FB7903F00F03043B99
:10192C001201D2B20B441A7600BF0C37BD4680BCF4
:10193C00704700BF00E100E000ED00E080B489B02A
:10194C0000AFF860B9607A60FB6803F00703FB61D5
:10195C00FB69C3F10703042B28BF0423BB61FB699C
:10196C000433062B02D9FB69033B00E000237B61A7
:10197C004FF0FF32BB6902FA03F3DA43BB681A403B
:10198C007B699A404FF0FF317B6901FA03F3D9432D
:10199C007B680B40134318462437BD4680BC704708
:1019AC0080B582B000AF78607B68013BB3F1807F7B
:1019BC0001D301230FE00A4A7B68013B53600F21DE
:1019CC004FF0FF30FFF790FF054B00229A60044B5D
:1019DC0007221A60002318460837BD4680BD00BF99
:1019EC0010E000E080B582B000AF78607868FFF757
:1019FC002DFF00BF0837BD4680BD80B586B000AF57
:101A0C000346B9607A60FB7300237B61FFF742FFEA
:101A1C0078617A68B9687869FFF790FF024697F9A0
:101A2C000F3011461846FFF75FFF00BF1837BD4651
:101A3C0080BD80B582B000AF0346FB7197F90730CB
:101A4C001846FFF735FF00BF0837BD4680BD80B58F
:101A5C0082B000AF78607868FFF7A2FF03461846A3
:101A6C000837BD4680BD000080B48BB000AF7860F5
:101A7C00396000237B6200233B6248E101227B6AD0
:101A8C0002FA03F3FB613B681B68FA691340BB6104
:101A9C00BA69FB699A4240F037813B685B68A34A9C
:101AAC0093425ED0A14A934275D8A14A934258D032
:101ABC009F4A93426FD89F4A934252D09D4A934279
:101ACC0069D89D4A93424CD09B4A934263D89B4A17
:101ADC00934246D0994A93425DD8122B2AD8122BA6
:101AEC0059D801A252F823F06F1B0008491B0008BB
:101AFC005B1B00089D1B0008A31B0008A31B000810
:101B0C00A31B0008A31B0008A31B0008A31B0008B1
:101B1C00A31B0008A31B0008A31B0008A31B0008A1
:101B2C00A31B0008A31B0008A31B0008511B0008E3
:101B3C00651B0008824A934213D02CE03B68DB689B
:101B4C003B6229E03B68DB6804333B6224E03B6882
:101B5C00DB6808333B621FE03B68DB680C333B629D
:101B6C001AE03B689B68002B02D104233B6213E014
:101B7C003B689B68012B05D108233B627B68FA69A3
:101B8C001A6109E008233B627B68FA695A6103E039
:101B9C0000233B6200E000BFBB69FF2B01D87B68D0
:101BAC0001E07B6804337B61BB69FF2B02D87B6A45
:101BBC009B0002E07B6A083B9B003B617B691A68D7
:101BCC000F213B6901FA03F3DB431A40396A3B6985
:101BDC0001FA03F31A437B691A603B685B6803F0F4
:101BEC008053002B00F09080564B9B69554A43F074
:101BFC0001039361534B9B6903F00103BB60BB680A
:101C0C00514A7B6A9B08023352F82330FB607B6A93
:101C1C0003F003039B000F2202FA03F3DB43FA6881
:101C2C001340FB607B68494A93420DD07B68484A5D
:101C3C00934207D07B68474A934201D1022304E0C8
:101C4C00032302E0012300E000237A6A02F003027E
:101C5C0092009340FA681343FB603B497B6A9B08F4
:101C6C000233FA6841F823203B685B6803F4801365
:101C7C00002B06D0384B9A683749BB6913438B60ED
:101C8C0006E0354B9A68BB69DB43334913408B60E4
:101C9C003B685B6803F40013002B06D02E4BDA680C
:101CAC002D49BB691343CB6006E02B4BDA68BB694B
:101CBC00DB4329491340CB603B685B6803F400337A
:101CCC00002B06D0244B5A682349BB6913434B6045
:101CDC0006E0214B5A68BB69DB431F4913404B603C
:101CEC003B685B6803F48033002B06D01A4B1A68F0
:101CFC001949BB6913430B6006E0174B1A68BB69A3
:101D0C00DB43154913400B607B6A01337B623B68F4
:101D1C001A687B6A22FA03F3002B7FF4AFAE00BF84
:101D2C0000BF2C37BD4680BC704700BF000032108E
:101D3C0000003110000022100000211000001210D1
:101D4C00000011100010024000000140000801408A
:101D5C00000C0140001001400004014080B483B02D
:101D6C0000AF78600B467B8013467B707B78002B32
:101D7C0003D07A887B681A6103E07B881A047B683D
:101D8C001A6100BF0C37BD4680BC704780B485B06B
:101D9C0000AF78600B467B807B68DB68FB607A88E1
:101DAC00FB6813401A04FB68D9437B880B401A4329
:101DBC007B681A6100BF1437BD4680BC70470000B9
:101DCC0080B586B000AF78607B68002B01D1012311
:101DDC006CE27B681B6803F00103002B00F087802A
:101DEC00924B5B6803F00C03042B0CD08F4B5B689D
:101DFC0003F00C03082B12D18C4B5B6803F480337B
:101E0C00B3F5803F0BD1894B1B6803F40033002BD7
:101E1C006CD07B685B68002B68D1012346E27B6841
:101E2C005B68B3F5803F06D1804B1B687F4A43F457
:101E3C00803313602EE07B685B68002B0CD17B4BEE
:101E4C001B687A4A23F480331360784B1B68774AFB
:101E5C0023F4802313601DE07B685B68B3F5A02F2F
:101E6C000CD1724B1B68714A43F4802313606F4B87
:101E7C001B686E4A43F4803313600BE06B4B1B689A
:101E8C006A4A23F480331360684B1B68674A23F457
:101E9C00802313607B685B68002B13D0FFF7CCFCAE
:101EAC00386108E0FFF7C8FC02463B69D31A642B83
:101EBC0001D90323FAE15D4B1B6803F40033002BBB
:101ECC00F0D014E0FFF7B8FC386108E0FFF7B4FC81
:101EDC0002463B69D31A642B01D90323E6E1534B29
:101EEC001B6803F40033002BF0D100E000BF7B68CB
:101EFC001B6803F00203002B63D04C4B5B6803F0B0
:101F0C000C03002B0BD0494B5B6803F00C03082B24
:101F1C001CD1464B5B6803F48033002B16D1434B2A
:101F2C001B6803F00203002B05D07B681B69012B97
:101F3C0001D00123BAE13D4B1B6823F0F8027B680A
:101F4C005B69DB00394913430B603AE07B681B6922
:101F5C00002B20D0364B01221A60FFF76DFC386144
:101F6C0008E0FFF769FC02463B69D31A022B01D942
:101F7C0003239BE12D4B1B6803F00203002BF0D0D5
:101F8C002A4B1B6823F0F8027B685B69DB0027494E
:101F9C0013430B6015E0264B00221A60FFF74CFC34
:101FAC00386108E0FFF748FC02463B69D31A022B64
:101FBC0001D903237AE11D4B1B6803F00203002BAC
:101FCC00F0D17B681B6803F00803002B3AD07B68C8
:101FDC009B69002B19D0174B01221A60FFF72CFCC0
:101FEC00386108E0FFF728FC02463B69D31A022B44
:101FFC0001D903235AE10D4B5B6A03F00203002B5A
:10200C00F0D0012000F09AFA1CE00A4B00221A6072
:10201C00FFF712FC38610FE0FFF70EFC02463B693C
:10202C00D31A022B08D9032340E100BF0010024051
:10203C0000004242800442429E4B5B6A03F0020362
:10204C00002BE9D17B681B6803F00403002B00F024
:10205C00A6800023FB75974BDB6903F08053002BA4
:10206C000DD1944BDB69934A43F08053D361914B70
:10207C00DB6903F08053BB60BB680123FB758E4B9F
:10208C001B6803F48073002B18D18B4B1B688A4A96
:10209C0043F480731360FFF7CFFB386108E0FFF760
:1020AC00CBFB02463B69D31A642B01D90323FDE019
:1020BC00814B1B6803F48073002BF0D07B68DB68CA
:1020CC00012B06D17B4B1B6A7A4A43F00103136246
:1020DC002DE07B68DB68002B0CD1764B1B6A754AB4
:1020EC0023F001031362734B1B6A724A23F004033F
:1020FC0013621CE07B68DB68052B0CD16D4B1B6AF3
:10210C006C4A43F0040313626A4B1B6A694A43F03E
:10211C00010313620BE0674B1B6A664A23F0010351
:10212C001362644B1B6A634A23F0040313627B68DB
:10213C00DB68002B15D0FFF77FFB38610AE0FFF757
:10214C007BFB02463B69D31A41F28832934201D998
:10215C000323ABE0574B1B6A03F00203002BEED0BA
:10216C0014E0FFF769FB38610AE0FFF765FB0246F4
:10217C003B69D31A41F28832934201D9032395E08B
:10218C004C4B1B6A03F00203002BEED1FB7D012BA1
:10219C0005D1484BDB69474A23F08053D3617B68F8
:1021AC00DB69002B00F08180424B5B6803F00C0371
:1021BC00082B61D07B68DB69022B46D13F4B002298
:1021CC001A60FFF739FB386108E0FFF735FB024670
:1021DC003B69D31A022B01D9032367E0354B1B68EB
:1021EC0003F00073002BF0D17B681B6AB3F5803FC2
:1021FC0008D1304B5B6823F400327B689B682D4917
:10220C0013434B602B4B5B6823F474127B68196A85
:10221C007B685B6A0B43274913434B60274B0122B6
:10222C001A60FFF709FB386108E0FFF705FB02466F
:10223C003B69D31A022B01D9032337E01D4B1B68D2
:10224C0003F00073002BF0D02FE01C4B00221A601F
:10225C00FFF7F2FA386108E0FFF7EEFA02463B6945
:10226C00D31A022B01D9032320E0124B1B6803F075
:10227C000073002BF0D118E07B68DB69012B01D1D6
:10228C00012313E00B4B5B68FB60FB6803F48032AB
:10229C007B681B6A9A4206D1FB6803F470127B6858
:1022AC005B6A9A4201D0012300E0002318461837DC
:1022BC00BD4680BD001002400070004060004242EC
:1022CC0080B584B000AF786039607B68002B01D199
:1022DC000123D0E06A4B1B6803F007033A689A426B
:1022EC0010D9674B1B6823F0070265493B68134301
:1022FC000B60634B1B6803F007033A689A4201D0EA
:10230C000123B8E07B681B6803F00203002B20D08C
:10231C007B681B6803F00403002B05D0594B5B68EA
:10232C00584A43F4E06353607B681B6803F008036E
:10233C00002B05D0534B5B68524A43F460535360F7
:10234C00504B5B6823F0F0027B689B684D4913434C
:10235C004B607B681B6803F00103002B40D07B684B
:10236C005B68012B07D1474B1B6803F40033002B30
:10237C0015D101237FE07B685B68022B07D1414BB1
:10238C001B6803F00073002B09D1012373E03D4B54
:10239C001B6803F00203002B01D101236BE0394BC6
:1023AC005B6823F003027B685B68364913434B6020
:1023BC00FFF742FAF8600AE0FFF73EFA0246FB68C4
:1023CC00D31A41F28832934201D9032353E02D4BA7
:1023DC005B6803F00C027B685B689B009A42EBD154
:1023EC00274B1B6803F007033A689A4210D2244B20
:1023FC001B6823F0070222493B6813430B60204BF8
:10240C001B6803F007033A689A4201D0012332E0BB
:10241C007B681B6803F00403002B08D0194B5B6826
:10242C0023F4E0627B68DB68164913434B607B68DE
:10243C001B6803F00803002B09D0124B5B6823F4D4
:10244C0060527B681B69DB000E4913434B6000F044
:10245C0021F802460B4B5B681B0903F00F030A497A
:10246C00CB5C22FA03F3094A1360094B1B6818462C
:10247C00FFF7A0F9002318461037BD4680BD00BFFA
:10248C000020024000100240D42D00080C00002057
:10249C001000002080B487B000AF0023FB60002345
:1024AC00BB6000237B6100237B6000233B611E4BE0
:1024BC005B68FB60FB6803F00C03042B02D0082B59
:1024CC0003D027E0194B3B6127E0FB689B0C03F022
:1024DC000F03174AD35C7B60FB6803F48033002B3B
:1024EC0010D0114B5B685B0C03F00103114AD35CF9
:1024FC00BB607B680D4A02FB03F2BB68B2FBF3F3D3
:10250C007B6104E07B680C4A02FB03F37B617B6913
:10251C003B6102E0054B3B6100BF3B6918461C3731
:10252C00BD4680BC704700BF0010024000127A000C
:10253C00E42D0008F42D000800093D0080B485B09E
:10254C0000AF78600A4B1B680A4AA2FB03235B0AA4
:10255C007A6802FB03F3FB6000BFFB685A1EFA604B
:10256C00002BF9D100BF00BF1437BD4680BC7047AB
:10257C000C000020D34D621080B582B000AF7860A3
:10258C007B68002B01D1012341E07B6893F83D303F
:10259C00DBB2002B06D17B68002283F83C207868E4
:1025AC00FFF770F87B68022283F83D207B681A687D
:1025BC007B6804331946104600F076FA7B680122DA
:1025CC0083F846207B68012283F83E207B68012239
:1025DC0083F83F207B68012283F840207B6801222E
:1025EC0083F841207B68012283F842207B6801221A
:1025FC0083F843207B68012283F844207B68012206
:10260C0083F845207B68012283F83D20002318467F
:10261C000837BD4680BD000080B485B000AF78603F
:10262C007B6893F83D30DBB2012B01D0012335E000
:10263C007B68022283F83D207B681B68DA687B6824
:10264C001B6842F00102DA607B681B68164A9342F1
:10265C0009D07B681B68B3F1804F04D07B681B6882
:10266C00124A934211D17B681B689B6803F00703E5
:10267C00FB60FB68062B10D07B681B681A687B68B4
:10268C001B6842F001021A6007E07B681B681A683D
:10269C007B681B6842F001021A600023184614374D
:1026AC00BD4680BC704700BF002C014000040040B8
:1026BC0080B582B000AF78607B681B681B6903F043
:1026CC000203022B22D17B681B68DB6803F0020338
:1026DC00022B1BD17B681B686FF002021A617B68AE
:1026EC0001221A777B681B689B6903F00303002B9C
:1026FC0003D0786800F0BDF905E0786800F0B0F917
:10270C00786800F0BFF97B6800221A777B681B6839
:10271C001B6903F00403042B22D17B681B68DB6864
:10272C0003F00403042B1BD17B681B686FF00402BD
:10273C001A617B6802221A777B681B689B6903F419
:10274C004073002B03D0786800F093F905E07868AB
:10275C0000F086F9786800F095F97B6800221A770A
:10276C007B681B681B6903F00803082B22D17B686C
:10277C001B68DB6803F00803082B1BD17B681B6804
:10278C006FF008021A617B6804221A777B681B6859
:10279C00DB6903F00303002B03D0786800F069F9C0
:1027AC0005E0786800F05CF9786800F06BF97B68FC
:1027BC0000221A777B681B681B6903F01003102B2F
:1027CC0022D17B681B68DB6803F01003102B1BD134
:1027DC007B681B686FF010021A617B6808221A77FD
:1027EC007B681B68DB6903F44073002B03D07868AB
:1027FC0000F03FF905E0786800F032F9786800F0F5
:10280C0041F97B6800221A777B681B681B6903F00F
:10281C000103012B0ED17B681B68DB6803F00103FD
:10282C00012B07D17B681B686FF001021A61786875
:10283C0000F00DF97B681B681B6903F08003802B8B
:10284C000ED17B681B68DB6803F08003802B07D1FB
:10285C007B681B686FF080021A61786800F073FA6D
:10286C007B681B681B6903F04003402B0ED17B680F
:10287C001B68DB6803F04003402B07D17B681B68A7
:10288C006FF040021A61786800F005F97B681B68EC
:10289C001B6903F02003202B0ED17B681B68DB68BF
:1028AC0003F02003202B07D17B681B686FF02002FC
:1028BC001A61786800F03EFA00BF0837BD4680BD4B
:1028CC0080B584B000AF786039600023FB737B68FF
:1028DC0093F83C30012B01D10223B4E07B68012238
:1028EC0083F83C207B68022283F83D207B681B68C0
:1028FC009B68BB60BB6823F07703BB60BB6823F4A9
:10290C007F43BB607B681B68BA689A603B681B6836
:10291C00B3F5005F3ED0B3F5005F00F28780B3F5EE
:10292C00805F00F08680B3F5805F7FD8702B1AD063
:10293C00702B7BD8602B50D0602B77D8502B3CD091
:10294C00502B73D8402B58D0402B6FD8302B64D0E1
:10295C00302B6BD8202B60D0202B67D8002B5CD071
:10296C00102B5AD062E07B6818683B6899683B680A
:10297C005A683B68DB6800F066F97B681B689B68EB
:10298C00BB60BB6843F07703BB607B681B68BA68AD
:10299C009A604FE07B6818683B6899683B685A6896
:1029AC003B68DB6800F04FF97B681B689A687B68B2
:1029BC001B6842F480429A603CE07B6818683B6874
:1029CC0059683B68DB681A4600F0C6F87B681B68E0
:1029DC005021184600F01DF92CE07B6818683B6804
:1029EC0059683B68DB681A4600F0E4F87B681B68A2
:1029FC006021184600F00DF91CE07B6818683B68F4
:102A0C0059683B68DB681A4600F0A6F87B681B68BF
:102A1C004021184600F0FDF80CE07B681A683B6812
:102A2C001B681946104600F0F4F803E00123FB7311
:102A3C0000E000BF7B68012283F83D207B68002208
:102A4C0083F83C20FB7B18461037BD4680BD80B414
:102A5C0083B000AF786000BF0C37BD4680BC7047B8
:102A6C0080B483B000AF786000BF0C37BD4680BC2B
:102A7C00704780B483B000AF786000BF0C37BD46A0
:102A8C0080BC704780B483B000AF786000BF0C3757
:102A9C00BD4680BC704780B483B000AF786000BF87
:102AAC000C37BD4680BC704780B485B000AF7860F1
:102ABC0039607B681B68FB607B68254A934207D0B2
:102ACC007B68B3F1804F03D07B68224A934208D1D4
:102ADC00FB6823F07003FB603B685B68FA68134388
:102AEC00FB607B681A4A934207D07B68B3F1804F36
:102AFC0003D07B68174A934208D1FB6823F44073D8
:102B0C00FB603B68DB68FA681343FB60FB6823F0EF
:102B1C0080023B685B691343FB607B68FA681A6050
:102B2C003B689A687B68DA623B681A687B689A62D1
:102B3C007B68074A934203D13B681A697B681A6326
:102B4C007B6801225A6100BF1437BD4680BC7047B8
:102B5C00002C01400004004080B487B000AFF86046
:102B6C00B9607A60FB681B6A7B61FB681B6A23F0A7
:102B7C000102FB681A62FB689B693B613B6923F0AD
:102B8C00F0033B617B681B013A6913433B617B6932
:102B9C0023F00A037B617A69BB6813437B61FB6892
:102BAC003A699A61FB687A691A6200BF1C37BD46A4
:102BBC0080BC704780B487B000AFF860B9607A60B1
:102BCC00FB681B6A7B61FB681B6A23F01002FB68C5
:102BDC001A62FB689B693B613B6923F470433B6160
:102BEC007B681B033A6913433B617B6923F0A003A9
:102BFC007B61BB681B017A6913437B61FB683A6993
:102C0C009A61FB687A691A6200BF1C37BD4680BCAA
:102C1C00704780B485B000AF786039607B689B6882
:102C2C00FB60FB6823F07003FB603A68FB6813439E
:102C3C0043F00703FB607B68FA689A6000BF1437A7
:102C4C00BD4680BC704780B487B000AFF860B960F7
:102C5C007A603B60FB689B687B617B6923F47F43F4
:102C6C007B613B681A027B681A43BB6813437A6921
:102C7C0013437B61FB687A699A6000BF1C37BD46C1
:102C8C0080BC704780B485B000AF786039607B68D9
:102C9C0093F83C30012B01D1022341E07B680122E7
:102CAC0083F83C207B68022283F83D207B681B68FC
:102CBC005B68FB607B681B689B68BB60FB6823F0F0
:102CCC007003FB603B681B68FA681343FB607B680E
:102CDC001B68FA685A607B681B68144A934209D0D7
:102CEC007B681B68B3F1804F04D07B681B68104A6B
:102CFC0093420CD1BB6823F08003BB603B685B68DC
:102D0C00BA681343BB607B681B68BA689A607B68BF
:102D1C00012283F83D207B68002283F83C200023AD
:102D2C0018461437BD4680BC704700BF002C0140CC
:102D3C000004004080B483B000AF786000BF0C3753
:102D4C00BD4680BC704780B483B000AF786000BFD4
:102D5C000C37BD4680BC704770B500260C4D0D4C31
:102D6C00641BA410A64209D100F022F800260A4DDB
:102D7C000A4C641BA410A64205D170BD55F8043B47
:102D8C0098470136EEE755F8043B98470136F2E7D1
:102D9C00F82D0008F82D0008F82D0008FC2D00086F
:102DAC0003460244934200D1704703F8011BF9E734
:102DBC00F8B500BFF8BC08BC9E467047F8B500BF1C
:082DCC00F8BC08BC9E467047EC
:102DD40000000000000000000102030406070809C7
:102DE40002030405060708090A0B0C0D0E0F101048
:042DF40001020000D8
:042DF800310100089D
:042DFC000D010008BD
:102E00000500000003000000020000000024F400A0
:082E10001000000001000000A9
:04000005080017498F
:00000001FF
